{
  "contracts/FunkoPopMarketplace.sol": {
    "FunkoPopMarketplace": {
      "abi": [
        {
          "anonymous": false,
          "inputs": [
            {
              "indexed": false,
              "internalType": "uint256",
              "name": "id",
              "type": "uint256"
            },
            {
              "indexed": false,
              "internalType": "address",
              "name": "seller",
              "type": "address"
            },
            {
              "indexed": false,
              "internalType": "string",
              "name": "nameFunko",
              "type": "string"
            },
            {
              "indexed": false,
              "internalType": "uint256",
              "name": "price",
              "type": "uint256"
            }
          ],
          "name": "Added",
          "type": "event"
        },
        {
          "anonymous": false,
          "inputs": [
            {
              "indexed": false,
              "internalType": "uint256",
              "name": "id",
              "type": "uint256"
            },
            {
              "indexed": false,
              "internalType": "address",
              "name": "seller",
              "type": "address"
            },
            {
              "indexed": false,
              "internalType": "uint256",
              "name": "price",
              "type": "uint256"
            },
            {
              "indexed": false,
              "internalType": "uint256",
              "name": "endTime",
              "type": "uint256"
            },
            {
              "indexed": false,
              "internalType": "string",
              "name": "nameFunko",
              "type": "string"
            }
          ],
          "name": "Auction",
          "type": "event"
        },
        {
          "anonymous": false,
          "inputs": [
            {
              "indexed": false,
              "internalType": "uint256",
              "name": "id",
              "type": "uint256"
            },
            {
              "indexed": false,
              "internalType": "address",
              "name": "buyer",
              "type": "address"
            },
            {
              "indexed": false,
              "internalType": "uint256",
              "name": "bid",
              "type": "uint256"
            }
          ],
          "name": "AuctionFinalized",
          "type": "event"
        },
        {
          "anonymous": false,
          "inputs": [
            {
              "indexed": false,
              "internalType": "uint256",
              "name": "id",
              "type": "uint256"
            },
            {
              "indexed": false,
              "internalType": "address",
              "name": "bidder",
              "type": "address"
            },
            {
              "indexed": false,
              "internalType": "uint256",
              "name": "price",
              "type": "uint256"
            }
          ],
          "name": "BidPlaced",
          "type": "event"
        },
        {
          "anonymous": false,
          "inputs": [
            {
              "indexed": false,
              "internalType": "uint256",
              "name": "id",
              "type": "uint256"
            },
            {
              "indexed": false,
              "internalType": "address",
              "name": "seller",
              "type": "address"
            }
          ],
          "name": "Confirmed",
          "type": "event"
        },
        {
          "anonymous": false,
          "inputs": [
            {
              "indexed": false,
              "internalType": "uint256",
              "name": "id",
              "type": "uint256"
            },
            {
              "indexed": false,
              "internalType": "string",
              "name": "nameFunko",
              "type": "string"
            }
          ],
          "name": "Deleted",
          "type": "event"
        },
        {
          "anonymous": false,
          "inputs": [
            {
              "indexed": false,
              "internalType": "uint256",
              "name": "id",
              "type": "uint256"
            },
            {
              "indexed": false,
              "internalType": "address",
              "name": "buyer",
              "type": "address"
            }
          ],
          "name": "Purchased",
          "type": "event"
        },
        {
          "inputs": [
            {
              "internalType": "uint256",
              "name": "_id",
              "type": "uint256"
            }
          ],
          "name": "buyFunko",
          "outputs": [],
          "stateMutability": "payable",
          "type": "function"
        },
        {
          "inputs": [
            {
              "internalType": "uint256",
              "name": "_id",
              "type": "uint256"
            }
          ],
          "name": "confirmRecived",
          "outputs": [],
          "stateMutability": "nonpayable",
          "type": "function"
        },
        {
          "inputs": [
            {
              "internalType": "string",
              "name": "_nameFunko",
              "type": "string"
            },
            {
              "internalType": "string",
              "name": "_nameCharacter",
              "type": "string"
            },
            {
              "internalType": "string",
              "name": "_image",
              "type": "string"
            },
            {
              "internalType": "string",
              "name": "_category",
              "type": "string"
            },
            {
              "internalType": "string",
              "name": "_license",
              "type": "string"
            },
            {
              "internalType": "string",
              "name": "_boxNumber",
              "type": "string"
            },
            {
              "internalType": "uint256",
              "name": "_startingPrice",
              "type": "uint256"
            },
            {
              "internalType": "uint256",
              "name": "_duration",
              "type": "uint256"
            }
          ],
          "name": "createAuction",
          "outputs": [],
          "stateMutability": "nonpayable",
          "type": "function"
        },
        {
          "inputs": [
            {
              "internalType": "string",
              "name": "_nameFunko",
              "type": "string"
            },
            {
              "internalType": "string",
              "name": "_nameCharacter",
              "type": "string"
            },
            {
              "internalType": "string",
              "name": "_image",
              "type": "string"
            },
            {
              "internalType": "string",
              "name": "_category",
              "type": "string"
            },
            {
              "internalType": "string",
              "name": "_license",
              "type": "string"
            },
            {
              "internalType": "string",
              "name": "_boxNumber",
              "type": "string"
            },
            {
              "internalType": "uint256",
              "name": "_price",
              "type": "uint256"
            }
          ],
          "name": "createFunko",
          "outputs": [],
          "stateMutability": "nonpayable",
          "type": "function"
        },
        {
          "inputs": [
            {
              "internalType": "uint256",
              "name": "_id",
              "type": "uint256"
            }
          ],
          "name": "deleteFunko",
          "outputs": [],
          "stateMutability": "nonpayable",
          "type": "function"
        },
        {
          "inputs": [
            {
              "internalType": "uint256",
              "name": "_id",
              "type": "uint256"
            }
          ],
          "name": "finalizeAuction",
          "outputs": [],
          "stateMutability": "nonpayable",
          "type": "function"
        },
        {
          "inputs": [],
          "name": "funkoCount",
          "outputs": [
            {
              "internalType": "uint256",
              "name": "",
              "type": "uint256"
            }
          ],
          "stateMutability": "view",
          "type": "function"
        },
        {
          "inputs": [
            {
              "internalType": "uint256",
              "name": "",
              "type": "uint256"
            }
          ],
          "name": "funkos",
          "outputs": [
            {
              "internalType": "uint256",
              "name": "id",
              "type": "uint256"
            },
            {
              "internalType": "string",
              "name": "nameFunko",
              "type": "string"
            },
            {
              "internalType": "string",
              "name": "description",
              "type": "string"
            },
            {
              "internalType": "string",
              "name": "image",
              "type": "string"
            },
            {
              "internalType": "uint256",
              "name": "price",
              "type": "uint256"
            },
            {
              "internalType": "address payable",
              "name": "seller",
              "type": "address"
            },
            {
              "internalType": "address payable",
              "name": "buyer",
              "type": "address"
            },
            {
              "internalType": "bool",
              "name": "sold",
              "type": "bool"
            },
            {
              "internalType": "bool",
              "name": "confirmed",
              "type": "bool"
            },
            {
              "internalType": "bool",
              "name": "isAuction",
              "type": "bool"
            },
            {
              "internalType": "uint256",
              "name": "auctionEndTime",
              "type": "uint256"
            },
            {
              "internalType": "address payable",
              "name": "highestBidder",
              "type": "address"
            },
            {
              "internalType": "uint256",
              "name": "highestBid",
              "type": "uint256"
            },
            {
              "internalType": "bool",
              "name": "finalized",
              "type": "bool"
            }
          ],
          "stateMutability": "view",
          "type": "function"
        },
        {
          "inputs": [
            {
              "internalType": "uint256",
              "name": "_id",
              "type": "uint256"
            }
          ],
          "name": "placeBid",
          "outputs": [],
          "stateMutability": "payable",
          "type": "function"
        }
      ],
      "evm": {
        "bytecode": {
          "linkReferences": {},
          "object": "60808060405234601957600080556114b0908161001f8239f35b600080fdfe6080604052600436101561001257600080fd5b60003560e01c8063023ddcea14610bd757806321b445be14610afd5780632be2c001146109d05780637b54b9b3146109b257806391fe81e6146108d65780639979ef4514610803578063ab9dee0514610753578063e140eafd146100a25763e80838631461007f57600080fd5b3461009d57602036600319011261009d5761009b60043561139a565b005b600080fd5b3461009d5761010036600319011261009d576004356001600160401b03811161009d576100d3903690600401611165565b6024356001600160401b03811161009d576100f2903690600401611165565b906044356001600160401b03811161009d57610112903690600401611165565b6064356001600160401b03811161009d57610131903690600401611165565b906084356001600160401b03811161009d57610151903690600401611165565b9360a4356001600160401b03811161009d57610171903690600401611165565b60c4351561009d576102139160036002928160005499602060405199866101a18c9851809285808c01910161128a565b87016201016960ed1b838201526101c1825180938560238501910161128a565b01016201016960ed1b838201526101e282518093602060068501910161128a565b010161202d60f01b8382015261020282518093602060058501910161128a565b01010301601f198101845283611129565b61021f60e4354261138d565b916040519461022d8661110d565b8086526020860193858552604087019283526060870193845260c43560808801523360a0880152600060c0880152600060e088015260006101008801526001610120880152610140870152600061016087015260c43561018087015260006101a08701526000526001602052604060002092855184556001840190518051906001600160401b0382116105f5576102c483546111ac565b601f8111610721575b50602090601f83116001146106ba576102ff9291600091836106af575b50508160011b916000199060031b1c19161790565b90555b51805160028401916001600160401b0382116105f55761032283546111ac565b601f811161067d575b50602090601f83116001146106165761035c92916000918361060b5750508160011b916000199060031b1c19161790565b90555b519283516001600160401b0381116105f55761037e60038401546111ac565b601f81116105b5575b506020601f821160011461053a576104c193926103c583600a946101a09461052a9a60009261052f5750508160011b916000199060031b1c19161790565b60038501555b6080810151600485015560a0808201516005860180546001600160a01b0319166001600160a01b0392831617905560c083015160068701805460e08601516001600160a81b0319909116929093169190911791151590921b60ff60a01b16178155610100820151815460ff60a81b191690151560a81b60ff60a81b16178155610120820151815460ff60b01b191690151560b01b60ff60b01b1617905561014081015160078501556101608101516008850180546001600160a01b0319166001600160a01b0392909216919091179055610180810151600985015501519101805491151560ff1660ff1992909216919091179055565b7f7d4eba252ef451e8aeb31390c046e26df3f1af989b32b109565c0d8e2ea7e920600054916104f260e4354261138d565b61052260405192839286845233602085015260c4356040850152606084015260a0608084015260a08301906112ad565b0390a16112e9565b600055005b015190508a806102ea565b60038401600052806000209560005b601f198416811061059d57509260018361052a986101a0946104c19897600a97601f19811610610584575b505050811b0160038501556103cb565b015160001960f88460031b161c19169055898080610574565b82820151885560019097019660209283019201610549565b6105e590600385016000526020600020601f840160051c810191602085106105eb575b601f0160051c01906112d2565b85610387565b90915081906105d8565b634e487b7160e01b600052604160045260246000fd5b0151905088806102ea565b90601f1983169184600052816000209260005b818110610665575090846001959493921061064c575b505050811b01905561035f565b015160001960f88460031b161c1916905587808061063f565b92936020600181928786015181550195019301610629565b6106a990846000526020600020601f850160051c810191602086106105eb57601f0160051c01906112d2565b8761032b565b0151905089806102ea565b90601f1983169184600052816000209260005b81811061070957509084600195949392106106f0575b505050811b019055610302565b015160001960f88460031b161c191690558880806106e3565b929360206001819287860151815501950193016106cd565b61074d90846000526020600020601f850160051c810191602086106105eb57601f0160051c01906112d2565b886102cd565b602036600319011261009d5760043580600052600160205260406000206006810190815460ff8160a01c1661009d5760b01c60ff1661009d576004810154340361009d57600501546001600160a01b0316331461009d57805460ff60a01b19339081166001600160a81b031990921691909117600160a01b179091556040805192835260208301919091527fb47c52a971a941c629c2f7690d2a3bd407390d3c8eabc35473c70883a3d5da1691a1005b602036600319011261009d5760043580600052600160205260406000209060ff600683015460b01c161561009d57600782015442111561009d5760098201918254908134111561009d5760080180549091906001600160a01b0316806108b4575b82546001600160a01b031916339081178455348087556040805187815260208101939093528201527f0e54eff26401bf69b81b26f60bd85ef47f5d85275c1d268d84f68d6897431c4790606090a1005b600080809381939695965af16108c861135d565b501561009d57908380610864565b3461009d57602036600319011261009d576004356000818152600160205260409020600601546001600160a01b0316330361009d57806000526001602052604060002060068101805460ff8160a01c161561009d5760ff8160a81c1661009d5760ff60a81b1916600160a81b17905560058101805460049092015490916000918291829182916001600160a01b03165af161096f61135d565b501561009d5754604080519283526001600160a01b0390911660208301527f6f220d98c15dbd07fdc24781b682ea34f92411fc61b83c761dd927afbe02d3fd91a1005b3461009d57600036600319011261009d576020600054604051908152f35b3461009d57602036600319011261009d5760043560005260016020526040600020805460018201610a00906111e6565b91610a0d600282016111e6565b610a19600383016111e6565b91600481015492600160a01b600190036005830154166006830154600784015491600160a01b6001900360088601541693600986015495600a015460ff16966040519a8b9a8b5260208b016101c090526101c08b01610a77916112ad565b8a810360408c0152610a88916112ad565b89810360608b0152610a99916112ad565b96608089015260a0880152600160a01b60019003811660c08801528060a01c60ff16151560e08801528060a81c60ff16151561010088015260b01c60ff16151561012087015261014086015261016085015261018084015215156101a08301520390f35b3461009d57602036600319011261009d576004356000818152600160205260409020600501546001600160a01b0316330361009d5780600052600160205260ff60066040600020015460a01c161580610bb8575b1561009d5760005260016020526000600a60408220828155610b756001820161130e565b610b816002820161130e565b610b8d6003820161130e565b8260048201558260058201558260068201558260078201558260088201558260098201550155600080f35b5080600052600160205260ff60066040600020015460b01c1615610b51565b3461009d5760e036600319011261009d576004356001600160401b03811161009d57610c07903690600401611165565b6024356001600160401b03811161009d57610c26903690600401611165565b906044356001600160401b03811161009d57610c46903690600401611165565b916064356001600160401b03811161009d57610c66903690600401611165565b926084356001600160401b03811161009d57610c86903690600401611165565b9160a4356001600160401b03811161009d57610ca6903690600401611165565b60c4351561009d57610d48916003600292816000549760206040519b86610cd68e9851809285808c01910161128a565b87016201016960ed1b83820152610cf6825180938560238501910161128a565b01016201016960ed1b83820152610d1782518093602060068501910161128a565b010161202d60f01b83820152610d3782518093602060058501910161128a565b01010301601f198101865285611129565b60405193610d558561110d565b8285526020850192848452604086019182526060860192835260c43560808701523360a0870152600060c0870152600060e08701526000610100870152600061012087015260006101408701526000610160870152600061018087015260006101a08701526000526001602052604060002092855184556001840190518051906001600160401b0382116105f557610ded83546111ac565b601f81116110db575b50602090601f831160011461107457610e279291600091836106af5750508160011b916000199060031b1c19161790565b90555b51805160028401916001600160401b0382116105f557610e4a83546111ac565b601f8111611042575b50602090601f8311600114610fdb57610e8492916000918361060b5750508160011b916000199060031b1c19161790565b90555b519283516001600160401b0381116105f557610ea660038401546111ac565b601f8111610fa6575b506020601f8211600114610f4557610eed93926103c583600a946101a09461052a9a60009261052f5750508160011b916000199060031b1c19161790565b7f967c6eba7ce42253126aee59f7045f926763d5fe2ba7add0efee9ab75a07dd1e610f35600054926040519182918583523360208401526080604084015260808301906112ad565b60c43560608301520390a16112e9565b60038401600052806000209560005b601f1984168110610f8e57509260018361052a986101a094610eed9897600a97601f1981161061058457505050811b0160038501556103cb565b82820151885560019097019660209283019201610f54565b610fd590600385016000526020600020601f840160051c810191602085106105eb57601f0160051c01906112d2565b85610eaf565b90601f1983169184600052816000209260005b81811061102a5750908460019594939210611011575b505050811b019055610e87565b015160001960f88460031b161c19169055878080611004565b92936020600181928786015181550195019301610fee565b61106e90846000526020600020601f850160051c810191602086106105eb57601f0160051c01906112d2565b87610e53565b90601f1983169184600052816000209260005b8181106110c357509084600195949392106110aa575b505050811b019055610e2a565b015160001960f88460031b161c1916905588808061109d565b92936020600181928786015181550195019301611087565b61110790846000526020600020601f850160051c810191602086106105eb57601f0160051c01906112d2565b88610df6565b6101c081019081106001600160401b038211176105f557604052565b90601f801991011681019081106001600160401b038211176105f557604052565b6001600160401b0381116105f557601f01601f191660200190565b81601f8201121561009d5780359061117c8261114a565b9261118a6040519485611129565b8284526020838301011161009d57816000926020809301838601378301015290565b90600182811c921680156111dc575b60208310146111c657565b634e487b7160e01b600052602260045260246000fd5b91607f16916111bb565b90604051918260008254926111fa846111ac565b80845293600181169081156112685750600114611221575b5061121f92500383611129565b565b90506000929192526020600020906000915b81831061124c57505090602061121f9282010138611212565b6020919350806001915483858901015201910190918492611233565b90506020925061121f94915060ff191682840152151560051b82010138611212565b60005b83811061129d5750506000910152565b818101518382015260200161128d565b906020916112c68151809281855285808601910161128a565b601f01601f1916010190565b8181106112dd575050565b600081556001016112d2565b60001981146112f85760010190565b634e487b7160e01b600052601160045260246000fd5b61131881546111ac565b9081611322575050565b81601f60009311600114611334575055565b8183526020832061135091601f0160051c8101906001016112d2565b8082528160208120915555565b3d15611388573d9061136e8261114a565b9161137c6040519384611129565b82523d6000602084013e565b606090565b919082018092116112f857565b8060005260016020526040600020906006820191825460ff8160b01c161561009d576007820154421061009d57600a8201805460ff811661009d5760ff1916600117905560088201546001600160a01b031690811561146b575083546001600160a01b0319166001600160a01b0391821617845560098201546004909201829055835460ff60a01b198116600160a01b179094556040805193845293166020830152918101919091527f4d9113a1377d665eaa1f9168a9c9080f2e488cb820b10149de3d6d2e0f2780c790606090a1565b60ff60a01b191690935550505056fea26469706673582212207fe95f0bec2dc2e5b79593ecfac2f2e80e39e6159572eeb43d403f140d3c3fed64736f6c634300081e0033",
          "opcodes": "PUSH1 0x80 DUP1 PUSH1 0x40 MSTORE CALLVALUE PUSH1 0x19 JUMPI PUSH1 0x0 DUP1 SSTORE PUSH2 0x14B0 SWAP1 DUP2 PUSH2 0x1F DUP3 CODECOPY RETURN JUMPDEST PUSH1 0x0 DUP1 REVERT INVALID PUSH1 0x80 PUSH1 0x40 MSTORE PUSH1 0x4 CALLDATASIZE LT ISZERO PUSH2 0x12 JUMPI PUSH1 0x0 DUP1 REVERT JUMPDEST PUSH1 0x0 CALLDATALOAD PUSH1 0xE0 SHR DUP1 PUSH4 0x23DDCEA EQ PUSH2 0xBD7 JUMPI DUP1 PUSH4 0x21B445BE EQ PUSH2 0xAFD JUMPI DUP1 PUSH4 0x2BE2C001 EQ PUSH2 0x9D0 JUMPI DUP1 PUSH4 0x7B54B9B3 EQ PUSH2 0x9B2 JUMPI DUP1 PUSH4 0x91FE81E6 EQ PUSH2 0x8D6 JUMPI DUP1 PUSH4 0x9979EF45 EQ PUSH2 0x803 JUMPI DUP1 PUSH4 0xAB9DEE05 EQ PUSH2 0x753 JUMPI DUP1 PUSH4 0xE140EAFD EQ PUSH2 0xA2 JUMPI PUSH4 0xE8083863 EQ PUSH2 0x7F JUMPI PUSH1 0x0 DUP1 REVERT JUMPDEST CALLVALUE PUSH2 0x9D JUMPI PUSH1 0x20 CALLDATASIZE PUSH1 0x3 NOT ADD SLT PUSH2 0x9D JUMPI PUSH2 0x9B PUSH1 0x4 CALLDATALOAD PUSH2 0x139A JUMP JUMPDEST STOP JUMPDEST PUSH1 0x0 DUP1 REVERT JUMPDEST CALLVALUE PUSH2 0x9D JUMPI PUSH2 0x100 CALLDATASIZE PUSH1 0x3 NOT ADD SLT PUSH2 0x9D JUMPI PUSH1 0x4 CALLDATALOAD PUSH1 0x1 PUSH1 0x1 PUSH1 0x40 SHL SUB DUP2 GT PUSH2 0x9D JUMPI PUSH2 0xD3 SWAP1 CALLDATASIZE SWAP1 PUSH1 0x4 ADD PUSH2 0x1165 JUMP JUMPDEST PUSH1 0x24 CALLDATALOAD PUSH1 0x1 PUSH1 0x1 PUSH1 0x40 SHL SUB DUP2 GT PUSH2 0x9D JUMPI PUSH2 0xF2 SWAP1 CALLDATASIZE SWAP1 PUSH1 0x4 ADD PUSH2 0x1165 JUMP JUMPDEST SWAP1 PUSH1 0x44 CALLDATALOAD PUSH1 0x1 PUSH1 0x1 PUSH1 0x40 SHL SUB DUP2 GT PUSH2 0x9D JUMPI PUSH2 0x112 SWAP1 CALLDATASIZE SWAP1 PUSH1 0x4 ADD PUSH2 0x1165 JUMP JUMPDEST PUSH1 0x64 CALLDATALOAD PUSH1 0x1 PUSH1 0x1 PUSH1 0x40 SHL SUB DUP2 GT PUSH2 0x9D JUMPI PUSH2 0x131 SWAP1 CALLDATASIZE SWAP1 PUSH1 0x4 ADD PUSH2 0x1165 JUMP JUMPDEST SWAP1 PUSH1 0x84 CALLDATALOAD PUSH1 0x1 PUSH1 0x1 PUSH1 0x40 SHL SUB DUP2 GT PUSH2 0x9D JUMPI PUSH2 0x151 SWAP1 CALLDATASIZE SWAP1 PUSH1 0x4 ADD PUSH2 0x1165 JUMP JUMPDEST SWAP4 PUSH1 0xA4 CALLDATALOAD PUSH1 0x1 PUSH1 0x1 PUSH1 0x40 SHL SUB DUP2 GT PUSH2 0x9D JUMPI PUSH2 0x171 SWAP1 CALLDATASIZE SWAP1 PUSH1 0x4 ADD PUSH2 0x1165 JUMP JUMPDEST PUSH1 0xC4 CALLDATALOAD ISZERO PUSH2 0x9D JUMPI PUSH2 0x213 SWAP2 PUSH1 0x3 PUSH1 0x2 SWAP3 DUP2 PUSH1 0x0 SLOAD SWAP10 PUSH1 0x20 PUSH1 0x40 MLOAD SWAP10 DUP7 PUSH2 0x1A1 DUP13 SWAP9 MLOAD DUP1 SWAP3 DUP6 DUP1 DUP13 ADD SWAP2 ADD PUSH2 0x128A JUMP JUMPDEST DUP8 ADD PUSH3 0x10169 PUSH1 0xED SHL DUP4 DUP3 ADD MSTORE PUSH2 0x1C1 DUP3 MLOAD DUP1 SWAP4 DUP6 PUSH1 0x23 DUP6 ADD SWAP2 ADD PUSH2 0x128A JUMP JUMPDEST ADD ADD PUSH3 0x10169 PUSH1 0xED SHL DUP4 DUP3 ADD MSTORE PUSH2 0x1E2 DUP3 MLOAD DUP1 SWAP4 PUSH1 0x20 PUSH1 0x6 DUP6 ADD SWAP2 ADD PUSH2 0x128A JUMP JUMPDEST ADD ADD PUSH2 0x202D PUSH1 0xF0 SHL DUP4 DUP3 ADD MSTORE PUSH2 0x202 DUP3 MLOAD DUP1 SWAP4 PUSH1 0x20 PUSH1 0x5 DUP6 ADD SWAP2 ADD PUSH2 0x128A JUMP JUMPDEST ADD ADD SUB ADD PUSH1 0x1F NOT DUP2 ADD DUP5 MSTORE DUP4 PUSH2 0x1129 JUMP JUMPDEST PUSH2 0x21F PUSH1 0xE4 CALLDATALOAD TIMESTAMP PUSH2 0x138D JUMP JUMPDEST SWAP2 PUSH1 0x40 MLOAD SWAP5 PUSH2 0x22D DUP7 PUSH2 0x110D JUMP JUMPDEST DUP1 DUP7 MSTORE PUSH1 0x20 DUP7 ADD SWAP4 DUP6 DUP6 MSTORE PUSH1 0x40 DUP8 ADD SWAP3 DUP4 MSTORE PUSH1 0x60 DUP8 ADD SWAP4 DUP5 MSTORE PUSH1 0xC4 CALLDATALOAD PUSH1 0x80 DUP9 ADD MSTORE CALLER PUSH1 0xA0 DUP9 ADD MSTORE PUSH1 0x0 PUSH1 0xC0 DUP9 ADD MSTORE PUSH1 0x0 PUSH1 0xE0 DUP9 ADD MSTORE PUSH1 0x0 PUSH2 0x100 DUP9 ADD MSTORE PUSH1 0x1 PUSH2 0x120 DUP9 ADD MSTORE PUSH2 0x140 DUP8 ADD MSTORE PUSH1 0x0 PUSH2 0x160 DUP8 ADD MSTORE PUSH1 0xC4 CALLDATALOAD PUSH2 0x180 DUP8 ADD MSTORE PUSH1 0x0 PUSH2 0x1A0 DUP8 ADD MSTORE PUSH1 0x0 MSTORE PUSH1 0x1 PUSH1 0x20 MSTORE PUSH1 0x40 PUSH1 0x0 KECCAK256 SWAP3 DUP6 MLOAD DUP5 SSTORE PUSH1 0x1 DUP5 ADD SWAP1 MLOAD DUP1 MLOAD SWAP1 PUSH1 0x1 PUSH1 0x1 PUSH1 0x40 SHL SUB DUP3 GT PUSH2 0x5F5 JUMPI PUSH2 0x2C4 DUP4 SLOAD PUSH2 0x11AC JUMP JUMPDEST PUSH1 0x1F DUP2 GT PUSH2 0x721 JUMPI JUMPDEST POP PUSH1 0x20 SWAP1 PUSH1 0x1F DUP4 GT PUSH1 0x1 EQ PUSH2 0x6BA JUMPI PUSH2 0x2FF SWAP3 SWAP2 PUSH1 0x0 SWAP2 DUP4 PUSH2 0x6AF JUMPI JUMPDEST POP POP DUP2 PUSH1 0x1 SHL SWAP2 PUSH1 0x0 NOT SWAP1 PUSH1 0x3 SHL SHR NOT AND OR SWAP1 JUMP JUMPDEST SWAP1 SSTORE JUMPDEST MLOAD DUP1 MLOAD PUSH1 0x2 DUP5 ADD SWAP2 PUSH1 0x1 PUSH1 0x1 PUSH1 0x40 SHL SUB DUP3 GT PUSH2 0x5F5 JUMPI PUSH2 0x322 DUP4 SLOAD PUSH2 0x11AC JUMP JUMPDEST PUSH1 0x1F DUP2 GT PUSH2 0x67D JUMPI JUMPDEST POP PUSH1 0x20 SWAP1 PUSH1 0x1F DUP4 GT PUSH1 0x1 EQ PUSH2 0x616 JUMPI PUSH2 0x35C SWAP3 SWAP2 PUSH1 0x0 SWAP2 DUP4 PUSH2 0x60B JUMPI POP POP DUP2 PUSH1 0x1 SHL SWAP2 PUSH1 0x0 NOT SWAP1 PUSH1 0x3 SHL SHR NOT AND OR SWAP1 JUMP JUMPDEST SWAP1 SSTORE JUMPDEST MLOAD SWAP3 DUP4 MLOAD PUSH1 0x1 PUSH1 0x1 PUSH1 0x40 SHL SUB DUP2 GT PUSH2 0x5F5 JUMPI PUSH2 0x37E PUSH1 0x3 DUP5 ADD SLOAD PUSH2 0x11AC JUMP JUMPDEST PUSH1 0x1F DUP2 GT PUSH2 0x5B5 JUMPI JUMPDEST POP PUSH1 0x20 PUSH1 0x1F DUP3 GT PUSH1 0x1 EQ PUSH2 0x53A JUMPI PUSH2 0x4C1 SWAP4 SWAP3 PUSH2 0x3C5 DUP4 PUSH1 0xA SWAP5 PUSH2 0x1A0 SWAP5 PUSH2 0x52A SWAP11 PUSH1 0x0 SWAP3 PUSH2 0x52F JUMPI POP POP DUP2 PUSH1 0x1 SHL SWAP2 PUSH1 0x0 NOT SWAP1 PUSH1 0x3 SHL SHR NOT AND OR SWAP1 JUMP JUMPDEST PUSH1 0x3 DUP6 ADD SSTORE JUMPDEST PUSH1 0x80 DUP2 ADD MLOAD PUSH1 0x4 DUP6 ADD SSTORE PUSH1 0xA0 DUP1 DUP3 ADD MLOAD PUSH1 0x5 DUP7 ADD DUP1 SLOAD PUSH1 0x1 PUSH1 0x1 PUSH1 0xA0 SHL SUB NOT AND PUSH1 0x1 PUSH1 0x1 PUSH1 0xA0 SHL SUB SWAP3 DUP4 AND OR SWAP1 SSTORE PUSH1 0xC0 DUP4 ADD MLOAD PUSH1 0x6 DUP8 ADD DUP1 SLOAD PUSH1 0xE0 DUP7 ADD MLOAD PUSH1 0x1 PUSH1 0x1 PUSH1 0xA8 SHL SUB NOT SWAP1 SWAP2 AND SWAP3 SWAP1 SWAP4 AND SWAP2 SWAP1 SWAP2 OR SWAP2 ISZERO ISZERO SWAP1 SWAP3 SHL PUSH1 0xFF PUSH1 0xA0 SHL AND OR DUP2 SSTORE PUSH2 0x100 DUP3 ADD MLOAD DUP2 SLOAD PUSH1 0xFF PUSH1 0xA8 SHL NOT AND SWAP1 ISZERO ISZERO PUSH1 0xA8 SHL PUSH1 0xFF PUSH1 0xA8 SHL AND OR DUP2 SSTORE PUSH2 0x120 DUP3 ADD MLOAD DUP2 SLOAD PUSH1 0xFF PUSH1 0xB0 SHL NOT AND SWAP1 ISZERO ISZERO PUSH1 0xB0 SHL PUSH1 0xFF PUSH1 0xB0 SHL AND OR SWAP1 SSTORE PUSH2 0x140 DUP2 ADD MLOAD PUSH1 0x7 DUP6 ADD SSTORE PUSH2 0x160 DUP2 ADD MLOAD PUSH1 0x8 DUP6 ADD DUP1 SLOAD PUSH1 0x1 PUSH1 0x1 PUSH1 0xA0 SHL SUB NOT AND PUSH1 0x1 PUSH1 0x1 PUSH1 0xA0 SHL SUB SWAP3 SWAP1 SWAP3 AND SWAP2 SWAP1 SWAP2 OR SWAP1 SSTORE PUSH2 0x180 DUP2 ADD MLOAD PUSH1 0x9 DUP6 ADD SSTORE ADD MLOAD SWAP2 ADD DUP1 SLOAD SWAP2 ISZERO ISZERO PUSH1 0xFF AND PUSH1 0xFF NOT SWAP3 SWAP1 SWAP3 AND SWAP2 SWAP1 SWAP2 OR SWAP1 SSTORE JUMP JUMPDEST PUSH32 0x7D4EBA252EF451E8AEB31390C046E26DF3F1AF989B32B109565C0D8E2EA7E920 PUSH1 0x0 SLOAD SWAP2 PUSH2 0x4F2 PUSH1 0xE4 CALLDATALOAD TIMESTAMP PUSH2 0x138D JUMP JUMPDEST PUSH2 0x522 PUSH1 0x40 MLOAD SWAP3 DUP4 SWAP3 DUP7 DUP5 MSTORE CALLER PUSH1 0x20 DUP6 ADD MSTORE PUSH1 0xC4 CALLDATALOAD PUSH1 0x40 DUP6 ADD MSTORE PUSH1 0x60 DUP5 ADD MSTORE PUSH1 0xA0 PUSH1 0x80 DUP5 ADD MSTORE PUSH1 0xA0 DUP4 ADD SWAP1 PUSH2 0x12AD JUMP JUMPDEST SUB SWAP1 LOG1 PUSH2 0x12E9 JUMP JUMPDEST PUSH1 0x0 SSTORE STOP JUMPDEST ADD MLOAD SWAP1 POP DUP11 DUP1 PUSH2 0x2EA JUMP JUMPDEST PUSH1 0x3 DUP5 ADD PUSH1 0x0 MSTORE DUP1 PUSH1 0x0 KECCAK256 SWAP6 PUSH1 0x0 JUMPDEST PUSH1 0x1F NOT DUP5 AND DUP2 LT PUSH2 0x59D JUMPI POP SWAP3 PUSH1 0x1 DUP4 PUSH2 0x52A SWAP9 PUSH2 0x1A0 SWAP5 PUSH2 0x4C1 SWAP9 SWAP8 PUSH1 0xA SWAP8 PUSH1 0x1F NOT DUP2 AND LT PUSH2 0x584 JUMPI JUMPDEST POP POP POP DUP2 SHL ADD PUSH1 0x3 DUP6 ADD SSTORE PUSH2 0x3CB JUMP JUMPDEST ADD MLOAD PUSH1 0x0 NOT PUSH1 0xF8 DUP5 PUSH1 0x3 SHL AND SHR NOT AND SWAP1 SSTORE DUP10 DUP1 DUP1 PUSH2 0x574 JUMP JUMPDEST DUP3 DUP3 ADD MLOAD DUP9 SSTORE PUSH1 0x1 SWAP1 SWAP8 ADD SWAP7 PUSH1 0x20 SWAP3 DUP4 ADD SWAP3 ADD PUSH2 0x549 JUMP JUMPDEST PUSH2 0x5E5 SWAP1 PUSH1 0x3 DUP6 ADD PUSH1 0x0 MSTORE PUSH1 0x20 PUSH1 0x0 KECCAK256 PUSH1 0x1F DUP5 ADD PUSH1 0x5 SHR DUP2 ADD SWAP2 PUSH1 0x20 DUP6 LT PUSH2 0x5EB JUMPI JUMPDEST PUSH1 0x1F ADD PUSH1 0x5 SHR ADD SWAP1 PUSH2 0x12D2 JUMP JUMPDEST DUP6 PUSH2 0x387 JUMP JUMPDEST SWAP1 SWAP2 POP DUP2 SWAP1 PUSH2 0x5D8 JUMP JUMPDEST PUSH4 0x4E487B71 PUSH1 0xE0 SHL PUSH1 0x0 MSTORE PUSH1 0x41 PUSH1 0x4 MSTORE PUSH1 0x24 PUSH1 0x0 REVERT JUMPDEST ADD MLOAD SWAP1 POP DUP9 DUP1 PUSH2 0x2EA JUMP JUMPDEST SWAP1 PUSH1 0x1F NOT DUP4 AND SWAP2 DUP5 PUSH1 0x0 MSTORE DUP2 PUSH1 0x0 KECCAK256 SWAP3 PUSH1 0x0 JUMPDEST DUP2 DUP2 LT PUSH2 0x665 JUMPI POP SWAP1 DUP5 PUSH1 0x1 SWAP6 SWAP5 SWAP4 SWAP3 LT PUSH2 0x64C JUMPI JUMPDEST POP POP POP DUP2 SHL ADD SWAP1 SSTORE PUSH2 0x35F JUMP JUMPDEST ADD MLOAD PUSH1 0x0 NOT PUSH1 0xF8 DUP5 PUSH1 0x3 SHL AND SHR NOT AND SWAP1 SSTORE DUP8 DUP1 DUP1 PUSH2 0x63F JUMP JUMPDEST SWAP3 SWAP4 PUSH1 0x20 PUSH1 0x1 DUP2 SWAP3 DUP8 DUP7 ADD MLOAD DUP2 SSTORE ADD SWAP6 ADD SWAP4 ADD PUSH2 0x629 JUMP JUMPDEST PUSH2 0x6A9 SWAP1 DUP5 PUSH1 0x0 MSTORE PUSH1 0x20 PUSH1 0x0 KECCAK256 PUSH1 0x1F DUP6 ADD PUSH1 0x5 SHR DUP2 ADD SWAP2 PUSH1 0x20 DUP7 LT PUSH2 0x5EB JUMPI PUSH1 0x1F ADD PUSH1 0x5 SHR ADD SWAP1 PUSH2 0x12D2 JUMP JUMPDEST DUP8 PUSH2 0x32B JUMP JUMPDEST ADD MLOAD SWAP1 POP DUP10 DUP1 PUSH2 0x2EA JUMP JUMPDEST SWAP1 PUSH1 0x1F NOT DUP4 AND SWAP2 DUP5 PUSH1 0x0 MSTORE DUP2 PUSH1 0x0 KECCAK256 SWAP3 PUSH1 0x0 JUMPDEST DUP2 DUP2 LT PUSH2 0x709 JUMPI POP SWAP1 DUP5 PUSH1 0x1 SWAP6 SWAP5 SWAP4 SWAP3 LT PUSH2 0x6F0 JUMPI JUMPDEST POP POP POP DUP2 SHL ADD SWAP1 SSTORE PUSH2 0x302 JUMP JUMPDEST ADD MLOAD PUSH1 0x0 NOT PUSH1 0xF8 DUP5 PUSH1 0x3 SHL AND SHR NOT AND SWAP1 SSTORE DUP9 DUP1 DUP1 PUSH2 0x6E3 JUMP JUMPDEST SWAP3 SWAP4 PUSH1 0x20 PUSH1 0x1 DUP2 SWAP3 DUP8 DUP7 ADD MLOAD DUP2 SSTORE ADD SWAP6 ADD SWAP4 ADD PUSH2 0x6CD JUMP JUMPDEST PUSH2 0x74D SWAP1 DUP5 PUSH1 0x0 MSTORE PUSH1 0x20 PUSH1 0x0 KECCAK256 PUSH1 0x1F DUP6 ADD PUSH1 0x5 SHR DUP2 ADD SWAP2 PUSH1 0x20 DUP7 LT PUSH2 0x5EB JUMPI PUSH1 0x1F ADD PUSH1 0x5 SHR ADD SWAP1 PUSH2 0x12D2 JUMP JUMPDEST DUP9 PUSH2 0x2CD JUMP JUMPDEST PUSH1 0x20 CALLDATASIZE PUSH1 0x3 NOT ADD SLT PUSH2 0x9D JUMPI PUSH1 0x4 CALLDATALOAD DUP1 PUSH1 0x0 MSTORE PUSH1 0x1 PUSH1 0x20 MSTORE PUSH1 0x40 PUSH1 0x0 KECCAK256 PUSH1 0x6 DUP2 ADD SWAP1 DUP2 SLOAD PUSH1 0xFF DUP2 PUSH1 0xA0 SHR AND PUSH2 0x9D JUMPI PUSH1 0xB0 SHR PUSH1 0xFF AND PUSH2 0x9D JUMPI PUSH1 0x4 DUP2 ADD SLOAD CALLVALUE SUB PUSH2 0x9D JUMPI PUSH1 0x5 ADD SLOAD PUSH1 0x1 PUSH1 0x1 PUSH1 0xA0 SHL SUB AND CALLER EQ PUSH2 0x9D JUMPI DUP1 SLOAD PUSH1 0xFF PUSH1 0xA0 SHL NOT CALLER SWAP1 DUP2 AND PUSH1 0x1 PUSH1 0x1 PUSH1 0xA8 SHL SUB NOT SWAP1 SWAP3 AND SWAP2 SWAP1 SWAP2 OR PUSH1 0x1 PUSH1 0xA0 SHL OR SWAP1 SWAP2 SSTORE PUSH1 0x40 DUP1 MLOAD SWAP3 DUP4 MSTORE PUSH1 0x20 DUP4 ADD SWAP2 SWAP1 SWAP2 MSTORE PUSH32 0xB47C52A971A941C629C2F7690D2A3BD407390D3C8EABC35473C70883A3D5DA16 SWAP2 LOG1 STOP JUMPDEST PUSH1 0x20 CALLDATASIZE PUSH1 0x3 NOT ADD SLT PUSH2 0x9D JUMPI PUSH1 0x4 CALLDATALOAD DUP1 PUSH1 0x0 MSTORE PUSH1 0x1 PUSH1 0x20 MSTORE PUSH1 0x40 PUSH1 0x0 KECCAK256 SWAP1 PUSH1 0xFF PUSH1 0x6 DUP4 ADD SLOAD PUSH1 0xB0 SHR AND ISZERO PUSH2 0x9D JUMPI PUSH1 0x7 DUP3 ADD SLOAD TIMESTAMP GT ISZERO PUSH2 0x9D JUMPI PUSH1 0x9 DUP3 ADD SWAP2 DUP3 SLOAD SWAP1 DUP2 CALLVALUE GT ISZERO PUSH2 0x9D JUMPI PUSH1 0x8 ADD DUP1 SLOAD SWAP1 SWAP2 SWAP1 PUSH1 0x1 PUSH1 0x1 PUSH1 0xA0 SHL SUB AND DUP1 PUSH2 0x8B4 JUMPI JUMPDEST DUP3 SLOAD PUSH1 0x1 PUSH1 0x1 PUSH1 0xA0 SHL SUB NOT AND CALLER SWAP1 DUP2 OR DUP5 SSTORE CALLVALUE DUP1 DUP8 SSTORE PUSH1 0x40 DUP1 MLOAD DUP8 DUP2 MSTORE PUSH1 0x20 DUP2 ADD SWAP4 SWAP1 SWAP4 MSTORE DUP3 ADD MSTORE PUSH32 0xE54EFF26401BF69B81B26F60BD85EF47F5D85275C1D268D84F68D6897431C47 SWAP1 PUSH1 0x60 SWAP1 LOG1 STOP JUMPDEST PUSH1 0x0 DUP1 DUP1 SWAP4 DUP2 SWAP4 SWAP7 SWAP6 SWAP7 GAS CALL PUSH2 0x8C8 PUSH2 0x135D JUMP JUMPDEST POP ISZERO PUSH2 0x9D JUMPI SWAP1 DUP4 DUP1 PUSH2 0x864 JUMP JUMPDEST CALLVALUE PUSH2 0x9D JUMPI PUSH1 0x20 CALLDATASIZE PUSH1 0x3 NOT ADD SLT PUSH2 0x9D JUMPI PUSH1 0x4 CALLDATALOAD PUSH1 0x0 DUP2 DUP2 MSTORE PUSH1 0x1 PUSH1 0x20 MSTORE PUSH1 0x40 SWAP1 KECCAK256 PUSH1 0x6 ADD SLOAD PUSH1 0x1 PUSH1 0x1 PUSH1 0xA0 SHL SUB AND CALLER SUB PUSH2 0x9D JUMPI DUP1 PUSH1 0x0 MSTORE PUSH1 0x1 PUSH1 0x20 MSTORE PUSH1 0x40 PUSH1 0x0 KECCAK256 PUSH1 0x6 DUP2 ADD DUP1 SLOAD PUSH1 0xFF DUP2 PUSH1 0xA0 SHR AND ISZERO PUSH2 0x9D JUMPI PUSH1 0xFF DUP2 PUSH1 0xA8 SHR AND PUSH2 0x9D JUMPI PUSH1 0xFF PUSH1 0xA8 SHL NOT AND PUSH1 0x1 PUSH1 0xA8 SHL OR SWAP1 SSTORE PUSH1 0x5 DUP2 ADD DUP1 SLOAD PUSH1 0x4 SWAP1 SWAP3 ADD SLOAD SWAP1 SWAP2 PUSH1 0x0 SWAP2 DUP3 SWAP2 DUP3 SWAP2 DUP3 SWAP2 PUSH1 0x1 PUSH1 0x1 PUSH1 0xA0 SHL SUB AND GAS CALL PUSH2 0x96F PUSH2 0x135D JUMP JUMPDEST POP ISZERO PUSH2 0x9D JUMPI SLOAD PUSH1 0x40 DUP1 MLOAD SWAP3 DUP4 MSTORE PUSH1 0x1 PUSH1 0x1 PUSH1 0xA0 SHL SUB SWAP1 SWAP2 AND PUSH1 0x20 DUP4 ADD MSTORE PUSH32 0x6F220D98C15DBD07FDC24781B682EA34F92411FC61B83C761DD927AFBE02D3FD SWAP2 LOG1 STOP JUMPDEST CALLVALUE PUSH2 0x9D JUMPI PUSH1 0x0 CALLDATASIZE PUSH1 0x3 NOT ADD SLT PUSH2 0x9D JUMPI PUSH1 0x20 PUSH1 0x0 SLOAD PUSH1 0x40 MLOAD SWAP1 DUP2 MSTORE RETURN JUMPDEST CALLVALUE PUSH2 0x9D JUMPI PUSH1 0x20 CALLDATASIZE PUSH1 0x3 NOT ADD SLT PUSH2 0x9D JUMPI PUSH1 0x4 CALLDATALOAD PUSH1 0x0 MSTORE PUSH1 0x1 PUSH1 0x20 MSTORE PUSH1 0x40 PUSH1 0x0 KECCAK256 DUP1 SLOAD PUSH1 0x1 DUP3 ADD PUSH2 0xA00 SWAP1 PUSH2 0x11E6 JUMP JUMPDEST SWAP2 PUSH2 0xA0D PUSH1 0x2 DUP3 ADD PUSH2 0x11E6 JUMP JUMPDEST PUSH2 0xA19 PUSH1 0x3 DUP4 ADD PUSH2 0x11E6 JUMP JUMPDEST SWAP2 PUSH1 0x4 DUP2 ADD SLOAD SWAP3 PUSH1 0x1 PUSH1 0xA0 SHL PUSH1 0x1 SWAP1 SUB PUSH1 0x5 DUP4 ADD SLOAD AND PUSH1 0x6 DUP4 ADD SLOAD PUSH1 0x7 DUP5 ADD SLOAD SWAP2 PUSH1 0x1 PUSH1 0xA0 SHL PUSH1 0x1 SWAP1 SUB PUSH1 0x8 DUP7 ADD SLOAD AND SWAP4 PUSH1 0x9 DUP7 ADD SLOAD SWAP6 PUSH1 0xA ADD SLOAD PUSH1 0xFF AND SWAP7 PUSH1 0x40 MLOAD SWAP11 DUP12 SWAP11 DUP12 MSTORE PUSH1 0x20 DUP12 ADD PUSH2 0x1C0 SWAP1 MSTORE PUSH2 0x1C0 DUP12 ADD PUSH2 0xA77 SWAP2 PUSH2 0x12AD JUMP JUMPDEST DUP11 DUP2 SUB PUSH1 0x40 DUP13 ADD MSTORE PUSH2 0xA88 SWAP2 PUSH2 0x12AD JUMP JUMPDEST DUP10 DUP2 SUB PUSH1 0x60 DUP12 ADD MSTORE PUSH2 0xA99 SWAP2 PUSH2 0x12AD JUMP JUMPDEST SWAP7 PUSH1 0x80 DUP10 ADD MSTORE PUSH1 0xA0 DUP9 ADD MSTORE PUSH1 0x1 PUSH1 0xA0 SHL PUSH1 0x1 SWAP1 SUB DUP2 AND PUSH1 0xC0 DUP9 ADD MSTORE DUP1 PUSH1 0xA0 SHR PUSH1 0xFF AND ISZERO ISZERO PUSH1 0xE0 DUP9 ADD MSTORE DUP1 PUSH1 0xA8 SHR PUSH1 0xFF AND ISZERO ISZERO PUSH2 0x100 DUP9 ADD MSTORE PUSH1 0xB0 SHR PUSH1 0xFF AND ISZERO ISZERO PUSH2 0x120 DUP8 ADD MSTORE PUSH2 0x140 DUP7 ADD MSTORE PUSH2 0x160 DUP6 ADD MSTORE PUSH2 0x180 DUP5 ADD MSTORE ISZERO ISZERO PUSH2 0x1A0 DUP4 ADD MSTORE SUB SWAP1 RETURN JUMPDEST CALLVALUE PUSH2 0x9D JUMPI PUSH1 0x20 CALLDATASIZE PUSH1 0x3 NOT ADD SLT PUSH2 0x9D JUMPI PUSH1 0x4 CALLDATALOAD PUSH1 0x0 DUP2 DUP2 MSTORE PUSH1 0x1 PUSH1 0x20 MSTORE PUSH1 0x40 SWAP1 KECCAK256 PUSH1 0x5 ADD SLOAD PUSH1 0x1 PUSH1 0x1 PUSH1 0xA0 SHL SUB AND CALLER SUB PUSH2 0x9D JUMPI DUP1 PUSH1 0x0 MSTORE PUSH1 0x1 PUSH1 0x20 MSTORE PUSH1 0xFF PUSH1 0x6 PUSH1 0x40 PUSH1 0x0 KECCAK256 ADD SLOAD PUSH1 0xA0 SHR AND ISZERO DUP1 PUSH2 0xBB8 JUMPI JUMPDEST ISZERO PUSH2 0x9D JUMPI PUSH1 0x0 MSTORE PUSH1 0x1 PUSH1 0x20 MSTORE PUSH1 0x0 PUSH1 0xA PUSH1 0x40 DUP3 KECCAK256 DUP3 DUP2 SSTORE PUSH2 0xB75 PUSH1 0x1 DUP3 ADD PUSH2 0x130E JUMP JUMPDEST PUSH2 0xB81 PUSH1 0x2 DUP3 ADD PUSH2 0x130E JUMP JUMPDEST PUSH2 0xB8D PUSH1 0x3 DUP3 ADD PUSH2 0x130E JUMP JUMPDEST DUP3 PUSH1 0x4 DUP3 ADD SSTORE DUP3 PUSH1 0x5 DUP3 ADD SSTORE DUP3 PUSH1 0x6 DUP3 ADD SSTORE DUP3 PUSH1 0x7 DUP3 ADD SSTORE DUP3 PUSH1 0x8 DUP3 ADD SSTORE DUP3 PUSH1 0x9 DUP3 ADD SSTORE ADD SSTORE PUSH1 0x0 DUP1 RETURN JUMPDEST POP DUP1 PUSH1 0x0 MSTORE PUSH1 0x1 PUSH1 0x20 MSTORE PUSH1 0xFF PUSH1 0x6 PUSH1 0x40 PUSH1 0x0 KECCAK256 ADD SLOAD PUSH1 0xB0 SHR AND ISZERO PUSH2 0xB51 JUMP JUMPDEST CALLVALUE PUSH2 0x9D JUMPI PUSH1 0xE0 CALLDATASIZE PUSH1 0x3 NOT ADD SLT PUSH2 0x9D JUMPI PUSH1 0x4 CALLDATALOAD PUSH1 0x1 PUSH1 0x1 PUSH1 0x40 SHL SUB DUP2 GT PUSH2 0x9D JUMPI PUSH2 0xC07 SWAP1 CALLDATASIZE SWAP1 PUSH1 0x4 ADD PUSH2 0x1165 JUMP JUMPDEST PUSH1 0x24 CALLDATALOAD PUSH1 0x1 PUSH1 0x1 PUSH1 0x40 SHL SUB DUP2 GT PUSH2 0x9D JUMPI PUSH2 0xC26 SWAP1 CALLDATASIZE SWAP1 PUSH1 0x4 ADD PUSH2 0x1165 JUMP JUMPDEST SWAP1 PUSH1 0x44 CALLDATALOAD PUSH1 0x1 PUSH1 0x1 PUSH1 0x40 SHL SUB DUP2 GT PUSH2 0x9D JUMPI PUSH2 0xC46 SWAP1 CALLDATASIZE SWAP1 PUSH1 0x4 ADD PUSH2 0x1165 JUMP JUMPDEST SWAP2 PUSH1 0x64 CALLDATALOAD PUSH1 0x1 PUSH1 0x1 PUSH1 0x40 SHL SUB DUP2 GT PUSH2 0x9D JUMPI PUSH2 0xC66 SWAP1 CALLDATASIZE SWAP1 PUSH1 0x4 ADD PUSH2 0x1165 JUMP JUMPDEST SWAP3 PUSH1 0x84 CALLDATALOAD PUSH1 0x1 PUSH1 0x1 PUSH1 0x40 SHL SUB DUP2 GT PUSH2 0x9D JUMPI PUSH2 0xC86 SWAP1 CALLDATASIZE SWAP1 PUSH1 0x4 ADD PUSH2 0x1165 JUMP JUMPDEST SWAP2 PUSH1 0xA4 CALLDATALOAD PUSH1 0x1 PUSH1 0x1 PUSH1 0x40 SHL SUB DUP2 GT PUSH2 0x9D JUMPI PUSH2 0xCA6 SWAP1 CALLDATASIZE SWAP1 PUSH1 0x4 ADD PUSH2 0x1165 JUMP JUMPDEST PUSH1 0xC4 CALLDATALOAD ISZERO PUSH2 0x9D JUMPI PUSH2 0xD48 SWAP2 PUSH1 0x3 PUSH1 0x2 SWAP3 DUP2 PUSH1 0x0 SLOAD SWAP8 PUSH1 0x20 PUSH1 0x40 MLOAD SWAP12 DUP7 PUSH2 0xCD6 DUP15 SWAP9 MLOAD DUP1 SWAP3 DUP6 DUP1 DUP13 ADD SWAP2 ADD PUSH2 0x128A JUMP JUMPDEST DUP8 ADD PUSH3 0x10169 PUSH1 0xED SHL DUP4 DUP3 ADD MSTORE PUSH2 0xCF6 DUP3 MLOAD DUP1 SWAP4 DUP6 PUSH1 0x23 DUP6 ADD SWAP2 ADD PUSH2 0x128A JUMP JUMPDEST ADD ADD PUSH3 0x10169 PUSH1 0xED SHL DUP4 DUP3 ADD MSTORE PUSH2 0xD17 DUP3 MLOAD DUP1 SWAP4 PUSH1 0x20 PUSH1 0x6 DUP6 ADD SWAP2 ADD PUSH2 0x128A JUMP JUMPDEST ADD ADD PUSH2 0x202D PUSH1 0xF0 SHL DUP4 DUP3 ADD MSTORE PUSH2 0xD37 DUP3 MLOAD DUP1 SWAP4 PUSH1 0x20 PUSH1 0x5 DUP6 ADD SWAP2 ADD PUSH2 0x128A JUMP JUMPDEST ADD ADD SUB ADD PUSH1 0x1F NOT DUP2 ADD DUP7 MSTORE DUP6 PUSH2 0x1129 JUMP JUMPDEST PUSH1 0x40 MLOAD SWAP4 PUSH2 0xD55 DUP6 PUSH2 0x110D JUMP JUMPDEST DUP3 DUP6 MSTORE PUSH1 0x20 DUP6 ADD SWAP3 DUP5 DUP5 MSTORE PUSH1 0x40 DUP7 ADD SWAP2 DUP3 MSTORE PUSH1 0x60 DUP7 ADD SWAP3 DUP4 MSTORE PUSH1 0xC4 CALLDATALOAD PUSH1 0x80 DUP8 ADD MSTORE CALLER PUSH1 0xA0 DUP8 ADD MSTORE PUSH1 0x0 PUSH1 0xC0 DUP8 ADD MSTORE PUSH1 0x0 PUSH1 0xE0 DUP8 ADD MSTORE PUSH1 0x0 PUSH2 0x100 DUP8 ADD MSTORE PUSH1 0x0 PUSH2 0x120 DUP8 ADD MSTORE PUSH1 0x0 PUSH2 0x140 DUP8 ADD MSTORE PUSH1 0x0 PUSH2 0x160 DUP8 ADD MSTORE PUSH1 0x0 PUSH2 0x180 DUP8 ADD MSTORE PUSH1 0x0 PUSH2 0x1A0 DUP8 ADD MSTORE PUSH1 0x0 MSTORE PUSH1 0x1 PUSH1 0x20 MSTORE PUSH1 0x40 PUSH1 0x0 KECCAK256 SWAP3 DUP6 MLOAD DUP5 SSTORE PUSH1 0x1 DUP5 ADD SWAP1 MLOAD DUP1 MLOAD SWAP1 PUSH1 0x1 PUSH1 0x1 PUSH1 0x40 SHL SUB DUP3 GT PUSH2 0x5F5 JUMPI PUSH2 0xDED DUP4 SLOAD PUSH2 0x11AC JUMP JUMPDEST PUSH1 0x1F DUP2 GT PUSH2 0x10DB JUMPI JUMPDEST POP PUSH1 0x20 SWAP1 PUSH1 0x1F DUP4 GT PUSH1 0x1 EQ PUSH2 0x1074 JUMPI PUSH2 0xE27 SWAP3 SWAP2 PUSH1 0x0 SWAP2 DUP4 PUSH2 0x6AF JUMPI POP POP DUP2 PUSH1 0x1 SHL SWAP2 PUSH1 0x0 NOT SWAP1 PUSH1 0x3 SHL SHR NOT AND OR SWAP1 JUMP JUMPDEST SWAP1 SSTORE JUMPDEST MLOAD DUP1 MLOAD PUSH1 0x2 DUP5 ADD SWAP2 PUSH1 0x1 PUSH1 0x1 PUSH1 0x40 SHL SUB DUP3 GT PUSH2 0x5F5 JUMPI PUSH2 0xE4A DUP4 SLOAD PUSH2 0x11AC JUMP JUMPDEST PUSH1 0x1F DUP2 GT PUSH2 0x1042 JUMPI JUMPDEST POP PUSH1 0x20 SWAP1 PUSH1 0x1F DUP4 GT PUSH1 0x1 EQ PUSH2 0xFDB JUMPI PUSH2 0xE84 SWAP3 SWAP2 PUSH1 0x0 SWAP2 DUP4 PUSH2 0x60B JUMPI POP POP DUP2 PUSH1 0x1 SHL SWAP2 PUSH1 0x0 NOT SWAP1 PUSH1 0x3 SHL SHR NOT AND OR SWAP1 JUMP JUMPDEST SWAP1 SSTORE JUMPDEST MLOAD SWAP3 DUP4 MLOAD PUSH1 0x1 PUSH1 0x1 PUSH1 0x40 SHL SUB DUP2 GT PUSH2 0x5F5 JUMPI PUSH2 0xEA6 PUSH1 0x3 DUP5 ADD SLOAD PUSH2 0x11AC JUMP JUMPDEST PUSH1 0x1F DUP2 GT PUSH2 0xFA6 JUMPI JUMPDEST POP PUSH1 0x20 PUSH1 0x1F DUP3 GT PUSH1 0x1 EQ PUSH2 0xF45 JUMPI PUSH2 0xEED SWAP4 SWAP3 PUSH2 0x3C5 DUP4 PUSH1 0xA SWAP5 PUSH2 0x1A0 SWAP5 PUSH2 0x52A SWAP11 PUSH1 0x0 SWAP3 PUSH2 0x52F JUMPI POP POP DUP2 PUSH1 0x1 SHL SWAP2 PUSH1 0x0 NOT SWAP1 PUSH1 0x3 SHL SHR NOT AND OR SWAP1 JUMP JUMPDEST PUSH32 0x967C6EBA7CE42253126AEE59F7045F926763D5FE2BA7ADD0EFEE9AB75A07DD1E PUSH2 0xF35 PUSH1 0x0 SLOAD SWAP3 PUSH1 0x40 MLOAD SWAP2 DUP3 SWAP2 DUP6 DUP4 MSTORE CALLER PUSH1 0x20 DUP5 ADD MSTORE PUSH1 0x80 PUSH1 0x40 DUP5 ADD MSTORE PUSH1 0x80 DUP4 ADD SWAP1 PUSH2 0x12AD JUMP JUMPDEST PUSH1 0xC4 CALLDATALOAD PUSH1 0x60 DUP4 ADD MSTORE SUB SWAP1 LOG1 PUSH2 0x12E9 JUMP JUMPDEST PUSH1 0x3 DUP5 ADD PUSH1 0x0 MSTORE DUP1 PUSH1 0x0 KECCAK256 SWAP6 PUSH1 0x0 JUMPDEST PUSH1 0x1F NOT DUP5 AND DUP2 LT PUSH2 0xF8E JUMPI POP SWAP3 PUSH1 0x1 DUP4 PUSH2 0x52A SWAP9 PUSH2 0x1A0 SWAP5 PUSH2 0xEED SWAP9 SWAP8 PUSH1 0xA SWAP8 PUSH1 0x1F NOT DUP2 AND LT PUSH2 0x584 JUMPI POP POP POP DUP2 SHL ADD PUSH1 0x3 DUP6 ADD SSTORE PUSH2 0x3CB JUMP JUMPDEST DUP3 DUP3 ADD MLOAD DUP9 SSTORE PUSH1 0x1 SWAP1 SWAP8 ADD SWAP7 PUSH1 0x20 SWAP3 DUP4 ADD SWAP3 ADD PUSH2 0xF54 JUMP JUMPDEST PUSH2 0xFD5 SWAP1 PUSH1 0x3 DUP6 ADD PUSH1 0x0 MSTORE PUSH1 0x20 PUSH1 0x0 KECCAK256 PUSH1 0x1F DUP5 ADD PUSH1 0x5 SHR DUP2 ADD SWAP2 PUSH1 0x20 DUP6 LT PUSH2 0x5EB JUMPI PUSH1 0x1F ADD PUSH1 0x5 SHR ADD SWAP1 PUSH2 0x12D2 JUMP JUMPDEST DUP6 PUSH2 0xEAF JUMP JUMPDEST SWAP1 PUSH1 0x1F NOT DUP4 AND SWAP2 DUP5 PUSH1 0x0 MSTORE DUP2 PUSH1 0x0 KECCAK256 SWAP3 PUSH1 0x0 JUMPDEST DUP2 DUP2 LT PUSH2 0x102A JUMPI POP SWAP1 DUP5 PUSH1 0x1 SWAP6 SWAP5 SWAP4 SWAP3 LT PUSH2 0x1011 JUMPI JUMPDEST POP POP POP DUP2 SHL ADD SWAP1 SSTORE PUSH2 0xE87 JUMP JUMPDEST ADD MLOAD PUSH1 0x0 NOT PUSH1 0xF8 DUP5 PUSH1 0x3 SHL AND SHR NOT AND SWAP1 SSTORE DUP8 DUP1 DUP1 PUSH2 0x1004 JUMP JUMPDEST SWAP3 SWAP4 PUSH1 0x20 PUSH1 0x1 DUP2 SWAP3 DUP8 DUP7 ADD MLOAD DUP2 SSTORE ADD SWAP6 ADD SWAP4 ADD PUSH2 0xFEE JUMP JUMPDEST PUSH2 0x106E SWAP1 DUP5 PUSH1 0x0 MSTORE PUSH1 0x20 PUSH1 0x0 KECCAK256 PUSH1 0x1F DUP6 ADD PUSH1 0x5 SHR DUP2 ADD SWAP2 PUSH1 0x20 DUP7 LT PUSH2 0x5EB JUMPI PUSH1 0x1F ADD PUSH1 0x5 SHR ADD SWAP1 PUSH2 0x12D2 JUMP JUMPDEST DUP8 PUSH2 0xE53 JUMP JUMPDEST SWAP1 PUSH1 0x1F NOT DUP4 AND SWAP2 DUP5 PUSH1 0x0 MSTORE DUP2 PUSH1 0x0 KECCAK256 SWAP3 PUSH1 0x0 JUMPDEST DUP2 DUP2 LT PUSH2 0x10C3 JUMPI POP SWAP1 DUP5 PUSH1 0x1 SWAP6 SWAP5 SWAP4 SWAP3 LT PUSH2 0x10AA JUMPI JUMPDEST POP POP POP DUP2 SHL ADD SWAP1 SSTORE PUSH2 0xE2A JUMP JUMPDEST ADD MLOAD PUSH1 0x0 NOT PUSH1 0xF8 DUP5 PUSH1 0x3 SHL AND SHR NOT AND SWAP1 SSTORE DUP9 DUP1 DUP1 PUSH2 0x109D JUMP JUMPDEST SWAP3 SWAP4 PUSH1 0x20 PUSH1 0x1 DUP2 SWAP3 DUP8 DUP7 ADD MLOAD DUP2 SSTORE ADD SWAP6 ADD SWAP4 ADD PUSH2 0x1087 JUMP JUMPDEST PUSH2 0x1107 SWAP1 DUP5 PUSH1 0x0 MSTORE PUSH1 0x20 PUSH1 0x0 KECCAK256 PUSH1 0x1F DUP6 ADD PUSH1 0x5 SHR DUP2 ADD SWAP2 PUSH1 0x20 DUP7 LT PUSH2 0x5EB JUMPI PUSH1 0x1F ADD PUSH1 0x5 SHR ADD SWAP1 PUSH2 0x12D2 JUMP JUMPDEST DUP9 PUSH2 0xDF6 JUMP JUMPDEST PUSH2 0x1C0 DUP2 ADD SWAP1 DUP2 LT PUSH1 0x1 PUSH1 0x1 PUSH1 0x40 SHL SUB DUP3 GT OR PUSH2 0x5F5 JUMPI PUSH1 0x40 MSTORE JUMP JUMPDEST SWAP1 PUSH1 0x1F DUP1 NOT SWAP2 ADD AND DUP2 ADD SWAP1 DUP2 LT PUSH1 0x1 PUSH1 0x1 PUSH1 0x40 SHL SUB DUP3 GT OR PUSH2 0x5F5 JUMPI PUSH1 0x40 MSTORE JUMP JUMPDEST PUSH1 0x1 PUSH1 0x1 PUSH1 0x40 SHL SUB DUP2 GT PUSH2 0x5F5 JUMPI PUSH1 0x1F ADD PUSH1 0x1F NOT AND PUSH1 0x20 ADD SWAP1 JUMP JUMPDEST DUP2 PUSH1 0x1F DUP3 ADD SLT ISZERO PUSH2 0x9D JUMPI DUP1 CALLDATALOAD SWAP1 PUSH2 0x117C DUP3 PUSH2 0x114A JUMP JUMPDEST SWAP3 PUSH2 0x118A PUSH1 0x40 MLOAD SWAP5 DUP6 PUSH2 0x1129 JUMP JUMPDEST DUP3 DUP5 MSTORE PUSH1 0x20 DUP4 DUP4 ADD ADD GT PUSH2 0x9D JUMPI DUP2 PUSH1 0x0 SWAP3 PUSH1 0x20 DUP1 SWAP4 ADD DUP4 DUP7 ADD CALLDATACOPY DUP4 ADD ADD MSTORE SWAP1 JUMP JUMPDEST SWAP1 PUSH1 0x1 DUP3 DUP2 SHR SWAP3 AND DUP1 ISZERO PUSH2 0x11DC JUMPI JUMPDEST PUSH1 0x20 DUP4 LT EQ PUSH2 0x11C6 JUMPI JUMP JUMPDEST PUSH4 0x4E487B71 PUSH1 0xE0 SHL PUSH1 0x0 MSTORE PUSH1 0x22 PUSH1 0x4 MSTORE PUSH1 0x24 PUSH1 0x0 REVERT JUMPDEST SWAP2 PUSH1 0x7F AND SWAP2 PUSH2 0x11BB JUMP JUMPDEST SWAP1 PUSH1 0x40 MLOAD SWAP2 DUP3 PUSH1 0x0 DUP3 SLOAD SWAP3 PUSH2 0x11FA DUP5 PUSH2 0x11AC JUMP JUMPDEST DUP1 DUP5 MSTORE SWAP4 PUSH1 0x1 DUP2 AND SWAP1 DUP2 ISZERO PUSH2 0x1268 JUMPI POP PUSH1 0x1 EQ PUSH2 0x1221 JUMPI JUMPDEST POP PUSH2 0x121F SWAP3 POP SUB DUP4 PUSH2 0x1129 JUMP JUMPDEST JUMP JUMPDEST SWAP1 POP PUSH1 0x0 SWAP3 SWAP2 SWAP3 MSTORE PUSH1 0x20 PUSH1 0x0 KECCAK256 SWAP1 PUSH1 0x0 SWAP2 JUMPDEST DUP2 DUP4 LT PUSH2 0x124C JUMPI POP POP SWAP1 PUSH1 0x20 PUSH2 0x121F SWAP3 DUP3 ADD ADD CODESIZE PUSH2 0x1212 JUMP JUMPDEST PUSH1 0x20 SWAP2 SWAP4 POP DUP1 PUSH1 0x1 SWAP2 SLOAD DUP4 DUP6 DUP10 ADD ADD MSTORE ADD SWAP2 ADD SWAP1 SWAP2 DUP5 SWAP3 PUSH2 0x1233 JUMP JUMPDEST SWAP1 POP PUSH1 0x20 SWAP3 POP PUSH2 0x121F SWAP5 SWAP2 POP PUSH1 0xFF NOT AND DUP3 DUP5 ADD MSTORE ISZERO ISZERO PUSH1 0x5 SHL DUP3 ADD ADD CODESIZE PUSH2 0x1212 JUMP JUMPDEST PUSH1 0x0 JUMPDEST DUP4 DUP2 LT PUSH2 0x129D JUMPI POP POP PUSH1 0x0 SWAP2 ADD MSTORE JUMP JUMPDEST DUP2 DUP2 ADD MLOAD DUP4 DUP3 ADD MSTORE PUSH1 0x20 ADD PUSH2 0x128D JUMP JUMPDEST SWAP1 PUSH1 0x20 SWAP2 PUSH2 0x12C6 DUP2 MLOAD DUP1 SWAP3 DUP2 DUP6 MSTORE DUP6 DUP1 DUP7 ADD SWAP2 ADD PUSH2 0x128A JUMP JUMPDEST PUSH1 0x1F ADD PUSH1 0x1F NOT AND ADD ADD SWAP1 JUMP JUMPDEST DUP2 DUP2 LT PUSH2 0x12DD JUMPI POP POP JUMP JUMPDEST PUSH1 0x0 DUP2 SSTORE PUSH1 0x1 ADD PUSH2 0x12D2 JUMP JUMPDEST PUSH1 0x0 NOT DUP2 EQ PUSH2 0x12F8 JUMPI PUSH1 0x1 ADD SWAP1 JUMP JUMPDEST PUSH4 0x4E487B71 PUSH1 0xE0 SHL PUSH1 0x0 MSTORE PUSH1 0x11 PUSH1 0x4 MSTORE PUSH1 0x24 PUSH1 0x0 REVERT JUMPDEST PUSH2 0x1318 DUP2 SLOAD PUSH2 0x11AC JUMP JUMPDEST SWAP1 DUP2 PUSH2 0x1322 JUMPI POP POP JUMP JUMPDEST DUP2 PUSH1 0x1F PUSH1 0x0 SWAP4 GT PUSH1 0x1 EQ PUSH2 0x1334 JUMPI POP SSTORE JUMP JUMPDEST DUP2 DUP4 MSTORE PUSH1 0x20 DUP4 KECCAK256 PUSH2 0x1350 SWAP2 PUSH1 0x1F ADD PUSH1 0x5 SHR DUP2 ADD SWAP1 PUSH1 0x1 ADD PUSH2 0x12D2 JUMP JUMPDEST DUP1 DUP3 MSTORE DUP2 PUSH1 0x20 DUP2 KECCAK256 SWAP2 SSTORE SSTORE JUMP JUMPDEST RETURNDATASIZE ISZERO PUSH2 0x1388 JUMPI RETURNDATASIZE SWAP1 PUSH2 0x136E DUP3 PUSH2 0x114A JUMP JUMPDEST SWAP2 PUSH2 0x137C PUSH1 0x40 MLOAD SWAP4 DUP5 PUSH2 0x1129 JUMP JUMPDEST DUP3 MSTORE RETURNDATASIZE PUSH1 0x0 PUSH1 0x20 DUP5 ADD RETURNDATACOPY JUMP JUMPDEST PUSH1 0x60 SWAP1 JUMP JUMPDEST SWAP2 SWAP1 DUP3 ADD DUP1 SWAP3 GT PUSH2 0x12F8 JUMPI JUMP JUMPDEST DUP1 PUSH1 0x0 MSTORE PUSH1 0x1 PUSH1 0x20 MSTORE PUSH1 0x40 PUSH1 0x0 KECCAK256 SWAP1 PUSH1 0x6 DUP3 ADD SWAP2 DUP3 SLOAD PUSH1 0xFF DUP2 PUSH1 0xB0 SHR AND ISZERO PUSH2 0x9D JUMPI PUSH1 0x7 DUP3 ADD SLOAD TIMESTAMP LT PUSH2 0x9D JUMPI PUSH1 0xA DUP3 ADD DUP1 SLOAD PUSH1 0xFF DUP2 AND PUSH2 0x9D JUMPI PUSH1 0xFF NOT AND PUSH1 0x1 OR SWAP1 SSTORE PUSH1 0x8 DUP3 ADD SLOAD PUSH1 0x1 PUSH1 0x1 PUSH1 0xA0 SHL SUB AND SWAP1 DUP2 ISZERO PUSH2 0x146B JUMPI POP DUP4 SLOAD PUSH1 0x1 PUSH1 0x1 PUSH1 0xA0 SHL SUB NOT AND PUSH1 0x1 PUSH1 0x1 PUSH1 0xA0 SHL SUB SWAP2 DUP3 AND OR DUP5 SSTORE PUSH1 0x9 DUP3 ADD SLOAD PUSH1 0x4 SWAP1 SWAP3 ADD DUP3 SWAP1 SSTORE DUP4 SLOAD PUSH1 0xFF PUSH1 0xA0 SHL NOT DUP2 AND PUSH1 0x1 PUSH1 0xA0 SHL OR SWAP1 SWAP5 SSTORE PUSH1 0x40 DUP1 MLOAD SWAP4 DUP5 MSTORE SWAP4 AND PUSH1 0x20 DUP4 ADD MSTORE SWAP2 DUP2 ADD SWAP2 SWAP1 SWAP2 MSTORE PUSH32 0x4D9113A1377D665EAA1F9168A9C9080F2E488CB820B10149DE3D6D2E0F2780C7 SWAP1 PUSH1 0x60 SWAP1 LOG1 JUMP JUMPDEST PUSH1 0xFF PUSH1 0xA0 SHL NOT AND SWAP1 SWAP4 SSTORE POP POP POP JUMP INVALID LOG2 PUSH5 0x6970667358 0x22 SLT KECCAK256 PUSH32 0xE95F0BEC2DC2E5B79593ECFAC2F2E80E39E6159572EEB43D403F140D3C3FED64 PUSH20 0x6F6C634300081E00330000000000000000000000 "
        },
        "methodIdentifiers": {
          "buyFunko(uint256)": "ab9dee05",
          "confirmRecived(uint256)": "91fe81e6",
          "createAuction(string,string,string,string,string,string,uint256,uint256)": "e140eafd",
          "createFunko(string,string,string,string,string,string,uint256)": "023ddcea",
          "deleteFunko(uint256)": "21b445be",
          "finalizeAuction(uint256)": "e8083863",
          "funkoCount()": "7b54b9b3",
          "funkos(uint256)": "2be2c001",
          "placeBid(uint256)": "9979ef45"
        }
      }
    }
  }
}